:020000040800F2
:10000000980500200101000897230008ED20000852
:1000100095230008ED0300081F27000800000000DA
:100020000000000000000000000000009B2300080A
:100030002704000800000000992300089D23000801
:100040001B0100081B0100081B0100081B01000820
:100050001B0100081B0100081B0100081B01000810
:100060001B0100081B01000829050008F103000816
:100070001B0100081B0100081B0100081B010008F0
:100080001B0100081B010008B10200081B01000849
:100090001B0100081B0100081B0100081B010008D0
:1000A0001B0100081B0100081B0100081B010008C0
:1000B0001B0100084D2400081B0100081B0100085B
:1000C0001B0100081B0100081B0100081B010008A0
:1000D0001B0100081B0100081B0100081B01000890
:1000E000290400081B0100081B010008DFF80CD0E0
:1000F00000F0CCF800480047B5270008980500201C
:100100000648804706480047FEE7FEE7FEE7FEE7B1
:10011000FEE7FEE7FEE7FEE7FEE7FEE70524000850
:10012000ED000008D2B201E000F8012B491EFBD21D
:1001300070470022F6E710B513460A4604461946F2
:10014000FFF7F0FF204610BD30B480EA010202F054
:10015000004530F0004221F0004013D090B1C30DB3
:10016000D40DC2F31601C0F31600E41A41F40001E5
:1001700040F400027D34914201D3641C00E0490048
:10018000002C02DA30BC002070474FF4000000233E
:10019000914201D3891A034340084FEA4101F7D144
:1001A00051B1914202D14FF0004105E002D24FF02F
:1001B000010101E06FF0010103EBC450284430BCA1
:1001C00000F02CB896230022114600F030B820F041
:1001D0000040C10DC0F3160040F400007F2901DA91
:1001E00000207047962903DCC1F19601C840704792
:1001F00096398840704700F0004230F000400AD045
:10020000C10D01F56071C0F3160042EA0151C20848
:100210004007114370470020014670470029A8BFDE
:100220007047401C490008BF20F00100704710B41F
:10023000B0FA80FC00FA0CF050EA010404BF10BCD4
:10024000704749B1CCF1200421FA04F411FA0CF101
:1002500018BF012121430843A3EB0C01CB1D4FEA3A
:1002600000614FEA102042BF002010BC704700EB35
:10027000C35010440029A4BF10BC7047401C490063
:1002800008BF20F0010010BC70470000064C074D6D
:1002900006E0E06840F0010394E807009847103456
:1002A000AC42F6D3FFF726FF1029000830290008DA
:1002B000014800F093BB0000A000002070B5044688
:1002C00000688168C943C9071CD1816821F0010118
:1002D000816000F089FF05460FE000BF00F084FF59
:1002E000401B022809D9A06A40F01000A062E06A11
:1002F00040F00100E062012070BD20688068C043CA
:10030000C007EBD0002070BD10B50146406A826A7C
:1003100012F0500F05D0006A026BBDE8104008468D
:100320001047816A41F40071816201688968C1F3F4
:10033000424107290CD1017B51B9816A21F48071B6
:100340008162816AC90403D4816A41F0010181623A
:1003500000F0F8FA10BD10B5406A816A41F0400122
:100360008162C16A41F00401C16200F036FB10BD38
:1003700010B5406A00F030FB10BD0000F8B5002653
:100380000446009600688168C943C90728D081687F
:1003900041F001018160134813490068B0FBF1F09E
:1003A00000E0401E00900028FBD100F01DFF054634
:1003B00011E000BF00F018FF401B02280BD9A06A13
:1003C00040F01000A062E06A40F00100E06284F8B2
:1003D00024600120F8BD20688068C043C007E9D1CF
:1003E0000020F8BD9C00002040420F00FEE7000006
:1003F000014800F0C7BC00005001002030B590F863
:1004000040500124AC40C56B6C6004686360436875
:10041000102B036803D099600068C26030BD9A60F9
:100420000068C16030BD704770B54FF4805000F077
:10043000CDFD4FF40054204600F0C8FD600000F0F0
:10044000C5FDA00000F0C2FD2146324800F0BFFE0D
:10045000314C3248616801F01DFE3048A16801F05E
:1004600019FE2E48E16801F015FE2D4D00220221F3
:10047000284600F0B3FE00220421284600F0AEFE1C
:1004800000220821284600F0A9FE26480068C0F393
:1004900042302070072824D2DFE800F023040E0643
:1004A00016181000A16800E061681C4801F0D6FD34
:1004B000208B012281B20FE0616800E0E1681748FB
:1004C00001F0CCFDA08AF4E7E16800E0A1681348E0
:1004D00001F0C4FD208AECE72846BDE8704000F03A
:1004E0007DBE0E48616801F0D5FD0C48A16801F0A1
:1004F000D1FD0A48E16801F0CDFD00220221284625
:1005000000F06CFE00220421284600F067FE002265
:100510000821E1E70010014068000020D000002021
:1005200000080140080C01402DE9F041102000F0C6
:100530004DFD1A4C002620684663206886632068BB
:10054000C66320680664164F3868406A154D2862F5
:10055000DFF854801AE03868406AE861E869296A7F
:10056000401A6862686A102810D9104F4FF480450D
:1005700020684663206886632068C6632068066436
:1005800000222946384600F029FEF1E710214046B6
:1005900000F018FE0028DED1BDE8F081D000002078
:1005A00010010020680000200008014000100140F8
:1005B00070470000F8B50022009290F8244083684C
:1005C0001646012C1CD0012480F82440D3B14D687C
:1005D0000B691F249D4226D81F055B1BC3F1030333
:1005E0000D6803EB83039D40A7F580172F439C40C4
:1005F000036844F440159C6BAC4327439F631EE0A3
:100600000220F8BD4B68012B05D0826A42F020021F
:100610008262012213E003689C6B0D686FF315047E
:1006200044EAC5340AE05B1BC3F1030303EB830315
:100630009C40036844F440159C6BAC439C63036886
:100640009C68E443E40706D09C6847F20105AC438C
:100650008D692C439C604B7D012B08D18B69B3F5D0
:10066000E04F08D0826A42F02002826201220B7DB4
:10067000012B06D00CE003685C6844F480645C6085
:10068000F5E74B7DA3B1826A42F02002826201222B
:100690000B68072405680A2B10D3EF680A3B03EBAD
:1006A00043039C40A7438C689C402743EF600EE0C7
:1006B00003685C6844F480545C60E9E72F6903EBED
:1006C00043039C40A7438C689C4027432F610B68E1
:1006D000102B01D0112B04D103689C6844F4000452
:1006E0009C604B68012B10D0022B16D0032B0368A3
:1006F0001BD01C6ACD686FF30B042C431C620B6883
:10070000102B19D0112B17D037E003685C69CD6826
:100710006FF30B042C435C61F1E703689C69CD68BF
:100720006FF30B042C439C61E9E7DC69CD686FF340
:100730000B042C43DC61E2E7124C0368A34217D19F
:100740009C68240219D49C6844F400049C600968E5
:10075000102912D10C490D4B0968B1FBF3F101EBE3
:100760008101490000E0491E00910029FBD104E00D
:10077000816A41F020018162012280F824601046E4
:10078000F8BD0000002401409C00002040420F0002
:100790007047000070B5044690F8240001280DD081
:1007A000012084F824002046FFF7E8FD01004FF007
:1007B000000005D084F82400084670BD022070BDFA
:1007C000A26A42F201039A4342F48052A2621C4A96
:1007D00025681C4B95421FD11E6816F4702F1BD044
:1007E000A66A46F48016A662A66AF60500D4E06200
:1007F00084F824006FF0040028602068456845F004
:1008000080054560206844686405D5D48468C4F3D5
:100810000234072C04D009E0A66A26F48016E2E729
:10082000904208D11A6812F4702F04D0826842F402
:1008300000428260C0E7826842F40212F9E70000D9
:100840000028014004240140F8B50024009490F8E9
:1008500024202546012A12D0012280F824204A684B
:100860001F23072A0DD20668776B521E02EB820205
:1008700093409F430B6893401F43776319E0022026
:10088000F8BD06680D2A0AD2376BD21F02EB82022E
:1008900093409F430B6893401F43376309E0F76A17
:1008A0000D3A02EB820293409F430B6893401F4333
:1008B000F7620A68072306680A2A0AD3F7680A3A21
:1008C00002EB420293409F438B6893401F43F760C3
:1008D00008E0376902EB420293409F438B689340E4
:1008E0001F4337610A68102A01D0112A20D1124B08
:1008F00002689A4217D193681B0219D4936843F493
:10090000000393600968102912D10C490C4A096848
:10091000B1FBF2F101EB8101490000E0491E0091B9
:100920000029FBD104E0816A41F0200181620124A9
:1009300080F824502046F8BD002401409C0000208F
:1009400040420F0010B500681D49884206D11D487D
:1009500000F1080102680A6040684860194C583C80
:100960002269194B19484FF480419A4203DB012256
:1009700000F034FC05E0002200F030FC2069401C4F
:100980002061A06810F0FF4F11480BD1114A0021DF
:1009900013685963136899631368D9631268116403
:1009A000A061E160A169FFF7CFFBFFF724FCC4E978
:1009B0000E010448BDE81040083001F0B1BE00004F
:1009C0000024014058000020F049020000100140BE
:1009D00000606A47D00000207047704710B5044699
:1009E00000684168890626D50168890723D5A16A70
:1009F000C90603D4A16A41F40071A1628168C1F300
:100A00004241072910D1217B71B9416821F02001B1
:100A10004160A06A20F48070A062A06AC00403D480
:100A2000A06A40F00100A0622046FFF78BFF21681A
:100A30006FF0120008602068416809062ED5016831
:100A400049072BD5A16AC90603D4A16A41F4005114
:100A5000A1628168C1F30231072909D041684905C3
:100A600015D48168C1F34241072910D1217B71B9A6
:100A7000416821F080014160A06A20F48050A062AA
:100A8000A06AC00503D4A06A40F00100A06220461D
:100A9000FFF77EFE21686FF00C0008602068416857
:100AA00049060DD50068C0070AD0A06A40F480301E
:100AB000A062204600F094F821686FF00100086001
:100AC00010BD00002DE9F0414FF0000704003D4645
:100AD0007ED0A06A002628B9E66284F82460204609
:100AE00000F080F82046FFF7E9FBA16AC90600D4B0
:100AF00020B1A06A40F01000A06269E0A16A21F470
:100B0000885141F00201A1626268E169237B0A43D6
:100B100047EA43010A43A1684FF48077B94209D0FC
:100B2000012907D05FF0000194F814C0BCF1010F57
:100B300002D00AE03946F7E7F3B1A36A43F0200395
:100B4000A362E36A43F00103E3622368D3F804C0BD
:100B50002CF4694C4CEA010CC3F804C021688B6882
:100B6000DFF870C003EA0C0313438B60A168B9423D
:100B70000BD0012909D00CE0DFF85CC0A3690CEBB5
:100B800043330B4343F40061DFE7218A0D05A5F5EC
:100B900080152168CB6A23F470032B43CB62216854
:100BA00089680E4B1940914208D1E662A16A21F092
:100BB000020141F00101A162BDE8F081A06A20F0CC
:100BC000020040F01000A062E06A40F00100E06224
:100BD0000120F1E7FDF7E1FF00E0FFFFFE0E1FFF40
:100BE0007047000070B586B0002605460096019655
:100BF0000296039600681B49884230D11A498869D9
:100C000040F400708861886900F40070049088697D
:100C100040F0040088618869694600F0040004908F
:100C2000C020009003200190104800F0DBF9114C27
:100C30000F48C4E900068020C4E9026080002061FA
:100C4000800060612020A0614FF44050E0612046A8
:100C500000F042F908B1FFF7ABFC2C62656206B008
:100C600070BD000000240140001002400008014057
:100C700008000240500100202DE9F0478946044653
:100C80003B4900683B4F0E1D9046884201D0B84258
:100C900007D1306810F4702F03D001252846BDE835
:100CA000F08794F8240001280CD0012084F8240057
:100CB0002046FFF763FB05004FF0000004D084F8E6
:100CC0002400EBE70220EAE7A16A40F601629143C3
:100CD00041F48071A1622168B94218D1326812F4DE
:100CE000702F14D0A16A41F48011A16231684905C6
:100CF00005D5A16A21F4005141F48051A162A16A95
:100D0000C9040AD5E16A21F00601E16206E0A26A9F
:100D100022F48012A2624968E9E7E06284F82400C4
:100D2000216A15488862216A1448C862216A1448F9
:100D3000086321686FF0020008602068816841F450
:100D400080718160216843464A464C31206A00F038
:100D5000F1F820688168C1F342410729816803D016
:100D600041F48011816099E741F4A001FAE70000A5
:100D70000024014000280140090300087103000815
:100D8000570300082DE9F05FC16B0C6801680B6820
:100D9000D0F840C0042202FA0CF2494DDFF824A139
:100DA000494E4A4FDFF828B1DFF828E122422CD023
:100DB0005A072AD50A68920603D40A6822F0040268
:100DC0000A600168A94201D1042219E0514501D10C
:100DD000402215E0B14202D14FF4806210E0B942E6
:100DE00002D14FF480420BE0594502D14FF48022EA
:100DF00006E0714502D14FF4800201E04FF08062BD
:100E00002F4908394A60C16A3BE04FF0020808FAEE
:100E10000CF818EA040F4FF000094FF0010235D02A
:100E20005FEA837832D50B689B0605D40B6823F004
:100E30000A030B6080F821200168A94201D1022237
:100E400019E0514501D1202215E0B14202D14FF401
:100E5000007210E0B94202D14FF400520BE0594544
:100E600002D14FF4003206E0714502D14FF4001276
:100E700001E04FF00072124908394A6080F8209072
:100E8000816A00291AD0BDE8F05F0847082505FAF5
:100E90000CF5254212D01B0710D50B6823F00E036A
:100EA0000B6090F84010C36B02FA01F15960826345
:100EB00080F8212080F82090016BE2E7BDE8F09FE8
:100EC000080002401C000240300002404400024082
:100ED000580002406C00024030B528B308C81349DE
:100EE00014221944B1FBF2F18900C16310498163F6
:100EF000022141771A6843F6F0718A43D0E9001461
:100F00002143D0E902452C4321430469214344692C
:100F10002143846921431143196000214163012267
:100F200042770177084630BD012030BDF8FFFDBF94
:100F30000000024070B5044690F82000002501280A
:100F40000CD0012084F8200094F821600020012EAC
:100F500006D084F820000225284670BD022070BD0E
:100F6000022684F82160A0632068066826F0010646
:100F700006602046FFF742FAE06A00282068016810
:100F800002D041F00E0106E021F00401016020686A
:100F9000016841F00A0101602068016841F0010127
:100FA0000160D9E770B5044600F01EF90546601CE3
:100FB00002D004480078044400F016F9401BA04217
:100FC000FAD370BD9000002070470000044910B5AE
:100FD0000A68024202D00860FFF7F6FF10BD000069
:100FE000140401402DE9F84FDFF8B891002409F10D
:100FF000040A0AF1040B23460F270BF1040EC9E083
:101000000125A5402A40AA427DD1674ED1F804C0EF
:10101000ACEB0608B44532D014DCBCF1030F3AD077
:1010200009DCBCF1000F2AD0BCF1010F1CD0BCF1CF
:10103000020F31D11DE0BCF1110F17D0BCF1120F1E
:101040002AD119E0B8F5881F19D006DCB8F5803F21
:1010500015D0B8F5801F1FD111E0B8F5001F0ED0D4
:10106000B8F5041F18D10AE0CB6815E0CB681B1D4A
:1010700012E0CB6808330FE0CB680C330CE08B68D0
:101080002BB1012B4FF0080303D0456104E004238A
:1010900002E0056100E00023FF2A01D8064601E0D6
:1010A00000F104064FEA840501D9A5F12005D6F820
:1010B000008007FA05FC28EA0C0803FA05F548EA5F
:1010C0000508C6F800804D68ED0062D5374DAE6961
:1010D00046F00106AE61AD6924F0030605F0010596
:1010E0000095334D06EB050CDCF80850A607360FCB
:1010F00007FA06F825EA0805DFF8B880404503D16D
:101100004FF0000817E044E0DFF8AC80404502D122
:101110004FF001080FE0DFF8A480404502D14FF006
:10112000020808E0DFF89880404502D14FF003083C
:1011300001E04FF0040808FA06F848EA0508CCF880
:1011400008804D68D9F80060ED034D4601D516437F
:1011500000E096432E604D68DAF80060AD03554616
:1011600001D5164300E096432E604D68DBF8006021
:10117000ED025D4601D5164300E096432E604D68B2
:10118000DEF80060AD02754601D5164300E09643D7
:101190002E60641C0D682A46E5407FF431AFBDE83F
:1011A000F88F000000040140000011100010024000
:1011B0000000014000080140000C01400010014007
:1011C000001401408068084000D001207047C268C8
:1011D0000A4201D041617047016170470AB1016163
:1011E00070470904FBE70000014880687047000071
:1011F00090000020024881680278114481607047A5
:1012000090000020074810B5016841F0100101600E
:10121000032000F097F8012000F006F800F024F811
:10122000002010BD0020024070B50D4D04464FF463
:101230007A712878B1FBF0F00A490968B1FBF0F047
:1012400000F06AFB48B9102C07D200222146501E3C
:1012500000F058F800206C6070BD012070BD0000E7
:10126000900000209C0000201D4808B5816941F0D5
:1012700001018161816901F001010091C16941F0C1
:101280008051C161C069002200F0805000900121AE
:101290006FF00B0000F036F8002201216FF00A0019
:1012A00000F030F8002201216FF0090000F02AF868
:1012B00001210022881F00F025F801210022481F8B
:1012C00000F020F801210022C81E00F01BF805489C
:1012D000416821F0E06141F00071416008BD00000B
:1012E0000010024000000140002809DB00F01F024E
:1012F000012191404009800000F1E020C0F8001178
:1013000070470000F0B40E4B1B680C46C3F3022379
:10131000C3F10705042D00D90425191D072901D2A1
:10132000002300E0DB1E012606FA05F1491E2140DC
:1013300099409E40761E16403143F0BC01F01ABA27
:101340000CED00E0064900F0070208684FF6FF03C5
:10135000184040EA0220034A10430860704700002A
:101360000CED00E00000FA052DE9F8430546007891
:10137000354CC00754D0E0690026C00008D4E069AD
:1013800040F08050E061E069012600F0805000905C
:101390002E480168C90512D40168804641F4807165
:1013A0000160FFF721FF074605E000BFFFF71CFFC4
:1013B000C01B642823D8D8F80000C005F6D5206AE1
:1013C00010F4407021D0A98801F4407181421CD0F2
:1013D000206A1F49012220F440700A6000220A603E
:1013E0002062C00711D0FFF7FFFE074641F28838A0
:1013F00008E000BFFFF7F8FEC11B414502D90320FA
:10140000BDE8F883206A8007F4D5206A696820F473
:101410004070084320621EB1E06920F08050E06116
:101420002878800705D56068A96820F44040084303
:1014300060602878C00605D56068E96820F48000FF
:10144000084360600020DBE70010024000700040AD
:10145000400442422DE9F0470F46050061D0434E5B
:10146000306800F00700B84209D2306820F0070069
:1014700038433060306800F00700B84251D1286826
:101480003B4C810712D5400703D5606840F4E0600B
:1014900060602878000703D5606840F460506060A1
:1014A0006068A96820F0F000084360602878C007F1
:1014B00028D06868012810D02168022810D0890738
:1014C00000292EDA616821F0030101436160FFF712
:1014D0008BFE804641F288390DE021688903EFE7F1
:1014E0008901EDE7FFF780FEA0EB0801494502D92D
:1014F0000320BDE8F0876068696800F00C00B0EB7D
:10150000810FEFD1306800F00700B8420BD9306886
:1015100020F0070038433060306800F00700B84220
:1015200001D00120E5E72878400705D56068E96823
:1015300020F4E060084360602878000706D5606802
:10154000296920F4605040EAC100606000F01EF894
:101550006168084AC1F30311515CC840064908603C
:1015600006480068FFF760FE0020C2E70020024046
:1015700000100240002900089C0000209400002078
:1015800001490120C86470470000424212A185B0A1
:101590000FC98DE80F0014A0144A00680490516828
:1015A000134801F00C03042B10D0082B0ED1C1F30B
:1015B0008343C9031DF803000AD5516804AAC1F387
:1015C0004041515C0A4A5043B0FBF1F005B070470E
:1015D00008494843FAE70000020304050607080922
:1015E0000A0B0C0D0E0F101001020000001002403B
:1015F00000127A0000093D002DE9F84F040070D078
:101600002078C04DC00749D06868C0F38100012828
:1016100007D06868C0F38100022809D16868C00358
:1016200006D52868800339D560680028E7D035E002
:101630006068B0F5803F0BD010B1B0F5A02F11D08D
:10164000286820F480302860286820F4802002E098
:10165000286840F480302860606890B1FFF7C4FDCE
:1016600006460AE0286840F480202860F0E700BFC2
:10167000FFF7BAFD801B642873D828688003F7D56C
:101680000CE0FFF7B1FD064605E000BFFFF7ACFD3B
:10169000801B6428F0D828688003F7D420789A4EFD
:1016A00080074FF001094FF0000839D5686810F045
:1016B0000C0F07D06868C0F38100022809D1686860
:1016C000C00306D42868800714D52069012808D1F2
:1016D00010E02069B0B1C6F80090FFF785FD07461D
:1016E00005E00AE1FFF780FDC01B0228C4D8286886
:1016F0008007F7D52868616920F0F80040EAC1004A
:1017000028600DE0C6F80080FFF76EFD074604E094
:10171000FFF76AFDC01B022823D828688007F7D48A
:10172000207800072CD57948A169D9B1C0F800907C
:10173000FFF75AFD074604E0FFF756FDC01B0228DD
:101740000FD8686A8007F7D571484FF4FA510068DE
:10175000B0FBF1F0009000BF0098411E0091FAD25A
:101760000EE080E0C0F80080FFF73EFD074604E091
:10177000FFF73AFDC01B022875D8686A8007F7D4C6
:101780002078400760D5E8690027C00008D4E869E0
:1017900040F08050E861E869012700F08050009037
:1017A0005C480168C90513D40168834641F480711F
:1017B0000160FFF719FD824606E000BFFFF714FD48
:1017C000A0EB0A0064284ED8DBF80000C005F5D570
:1017D000E06801280AD008B1052813D0286A20F053
:1017E00001002862286A20F0040002E0286A40F024
:1017F00001002862E06841F2883B98B1FFF7F4FCF1
:1018000082460BE0286A40F004002862EEE700BF41
:10181000FFF7EAFCA0EB0A0159455AD8286A80076D
:10182000F6D50CE0FFF7E0FC824605E0FFF7DCFCB4
:10183000A0EB0A0159454CD8286A8007F6D41FB19D
:10184000E86920F08050E861E06988B36968C1F315
:101850008101022944D00228C6F8608004D0FFF735
:10186000C3FC044638E034E0FFF7BEFC074604E062
:10187000FFF7BAFCC01B02282BD828688001F7D4D8
:10188000206AB0F5803F05D16868A16820F4003077
:1018900008436860D4E908010843696821F47411B9
:1018A00008436860C6F86090FFF79EFC044606E0B7
:1018B00025E000BFFFF798FC001B022809D8286824
:1018C0008001F7D51BE000BFFFF78EFC001B02284C
:1018D00002D90320BDE8F88F28688001F4D40EE017
:1018E0000128F7D06868226A00F48031914204D15F
:1018F000616A00F47010884201D00120EAE70020FC
:10190000E8E700000010024000004242800442422A
:101910009C0000200070004010B5401EB0F1807F98
:1019200001D3012010BD4FF0E02460610F2160174A
:1019300000F020FF0020A06107202061002010BDE2
:101940007047704710B590F83C20012A22D0012240
:1019500080F83C20CA688C6822F4407222434C68AC
:1019600022F4806222430C6822F4006222430C6954
:1019700022F4805222434C6922F400522243C96966
:10198000002322F480420A4301684A6480F83C3014
:10199000002010BD022010BD70B590F83C20012A37
:1019A00019D0012400F83C4F0222427050F83C3C10
:1019B0005A689D6822F070060A684968324325F02B
:1019C000800529435A6050F83C2C916044700021F6
:1019D0000170084670BD022070BD10B5040003D030
:1019E00094F83D0010B107E0012010BD002084F8FC
:1019F0003C00204600F00CF8022084F83D00211D38
:101A0000206800F029FD012084F83D00002010BD71
:101A100000B585B000210091019102910391006809
:101A20001349884221D11348C16941F00201C161C3
:101A3000C16901F002010491816941F008018161ED
:101A40008069694600F00800049010200090022090
:101A500002900948FFF7C6FA0848416821F440613E
:101A600041F0E06141F40061416005B000BD00005B
:101A70000004004000100240000C01400000014042
:101A800070B5044690F83C00012817D0012584F871
:101A90003C50022084F83D002068826822F07702E2
:101AA00022F47F4282600868502830D00DDC202864
:101AB0004DD005DC98B310283BD148E0022070BD22
:101AC000302844D0402834D139E0602828D070280C
:101AD00006D0B0F5805F2CD0B0F5005F29D10AE0C8
:101AE000CB68D1E90121206800F0F9FC2068816809
:101AF00041F0770109E0CB68D1E90121206800F0CD
:101B0000EEFC2068816841F48041816011E0CA6880
:101B10004968206800F098FD5021206807E016E031
:101B2000CA684968206800F0CDFD6021206800F097
:101B3000E0FC84F83D50002084F83C0070BDCA6889
:101B40004968206800F080FD40212068EFE72268A6
:101B500001461046EBE7000010B5006806498842D0
:101B600008D106480468606AFEF72CFB04498861C6
:101B70000020606210BD0000000400401001002041
:101B8000000000202DE9F041044690F83C000D468D
:101B900001283BD0012684F83C60022084F83D00F7
:101BA0009AB3042A44D02068082A53D0D5E90027E4
:101BB000E968036A23F480530362D0F81CC0036A07
:101BC0002CF4407C4CEA07274FF6FF7C27F4704743
:101BD0000CEA01313943770323F4005307EA023258
:101BE0001A43C16102622068C16921F44061C16188
:101BF0002068C169AA6841EA0221C16184F83D6098
:101C0000002084F83C00BDE8F08101E00220FAE702
:101C1000D5E90012EB68206800F028FD2068816992
:101C200021F00C01816120688169AA6811430FE0ED
:101C3000D5E90012EB68206800F056FD2068816944
:101C400021F44061816120688169AA6841EA02212A
:101C50008161D3E7D5E9002C2F7B016A21F48071E3
:101C60000162C169036A21F0030141EA0C0121F01C
:101C7000F00C39074FF400774CEA116123F400733C
:101C800007EA02221A43C16102622068C16921F099
:101C90000C01C1612068C169AA681143ADE710B5A4
:101CA000040003D094F83D0010B107E0012010BDFE
:101CB000002084F83C00204600F00CF8022084F854
:101CC0003D00211D206800F0C7FB012084F83D0085
:101CD000002010BD704710B50268044631B10429D8
:101CE00008D008291AD00C2908D11BE0D06840F090
:101CF000020002E0D06840F00400D06001222068B9
:101D000000F0E0FB2068816801F00701062903D09C
:101D1000016841F001010160002010BDD06840F071
:101D20000800EAE7D06840F01000E6E770B5044626
:101D3000006801694FF00005C943890715D4C168DF
:101D4000C943890711D4E91E016101202077206869
:101D500080698007204602D0FFF7FEFE04E000F015
:101D6000E3F8204600F078F9257720680169C94337
:101D7000490717D4C168C943490713D46FF0040158
:101D80000161022020772068806910F4407F20469E
:101D900002D0FFF7E1FE04E000F0C6F8204600F0B4
:101DA0005BF9257720680169C943090716D4C16822
:101DB000C943090712D46FF008010161042020779C
:101DC0002068C0698007204602D0FFF7C5FE04E006
:101DD00000F0AAF8204600F03FF925772068016955
:101DE000C943C90617D4C168C943C90613D46FF0E3
:101DF00010010161082020772068C06910F4407F3D
:101E0000204602D0FFF7A8FE04E000F08DF820463F
:101E100000F022F9257720680169C943C90708D174
:101E2000C168C943C90704D1891E0161204600F079
:101E30005BF920680169C943090609D4C168C9432F
:101E4000090605D46FF0800101612046FFF778FD97
:101E500020680169C943490609D4C168C9434906D4
:101E600005D46FF040010161204600F03EF9206882
:101E70000169C94389060BD4C168C943890607D4DF
:101E80006FF0200101612046BDE87040FFF759BDA9
:101E900070BD000010B586B0002100910191029143
:101EA00003911B4C03681B4802210322A34212D159
:101EB000836943F0040383618069039200F00400A6
:101EC00004904FF47060CDE9000169461248FFF7B5
:101ED00089F806B010BD114CA342FAD1836943F0D2
:101EE000080383618069039200F0080004902020B9
:101EF000CDE9000169460A48FFF774F809484168CE
:101F000021F4406141F0E06141F400614160E0E7AB
:101F1000002C014000100240000801400004004075
:101F2000000C014000000140704770B5044690F875
:101F30003C000D4601280DD0012684F83C600220AB
:101F400084F83D0042B1042A18D0082A2AD00C2A6D
:101F50004DD139E0022070BD206800F0D3FA20682E
:101F6000816941F0080181612068816921F00401E3
:101F70008161206881692A69114311E0206800F0BD
:101F8000E9FA2068816941F4006181612068816912
:101F900021F480618161206881692A6941EA022116
:101FA000816124E0206800F001FB2068C16941F0F4
:101FB0000801C1612068C16921F00401C161206884
:101FC000C1692A69114311E0206800F01BFB2068F9
:101FD000C16941F40061C1612068C16921F4806177
:101FE000C1612068C1692A6941EA0221C16184F89E
:101FF0003D60002084F83C0070BD10B5040003D0A3
:1020000094F83D0010B107E0012010BD002084F8D5
:102010003C00204600F00CF8022084F83D00211D11
:10202000206800F019FA012084F83D00002010BD5E
:1020300008B500680649884208D10648816941F41C
:1020400000618161806900F40060009008BD0000BB
:10205000002C0140001002407047000010B50446FB
:102060000068012200F02EFA09492068884203D155
:10207000416C41F4004141642068816801F007012E
:10208000062903D0016841F001010160002010BD64
:10209000002C014010B504460068002200F012FA3E
:1020A000104B41F2111120688A10984209D1036A3D
:1020B0000B4206D1036A134203D1436C23F400435D
:1020C00043642068036A0B4206D1016A114203D1BE
:1020D000016821F001010160012084F83D00002029
:1020E00010BD0000002C014070477047FEE7000063
:1020F00030B58BB00024079408941C2168460994DD
:10210000FEF717F814481349012584600160057330
:10211000047505614FF460214460C161FEF7D2FC93
:1021200006200994CDE9070507A90B48FEF78CFBAB
:102130000720CDE90005280306908DF81540049589
:1021400002948DF81440694603480394FEF732FA6E
:102150000BB030BD00240140A00000202DE9F0416B
:1021600086B000263648009601960296039681694D
:1021700041F010018161816901F0100104918169D0
:1021800041F020018161816901F0200104918169A0
:1021900041F004018161816901F0040104918169C8
:1021A00041F0080181618069264F00F008004FF47A
:1021B00060440490002221463846FFF70FF8DFF80C
:1021C000888000220E214046FFF708F80125CDE95E
:1021D000004502240320CDE9024069463846FEF757
:1021E00001FF8DE87000694640460394FEF7FAFE51
:1021F0000C200090CDE90154694640460394FEF757
:10220000F1FE102000901148CDE9010469464046D6
:10221000FEF7E8FE60020090CDE901640C4C6946CF
:102220002046FEF7DFFE4FF4704000900948CDE9EC
:10223000010569462046FEF7D5FE06B0BDE8F081EF
:102240000010024000100140000801400000111081
:10225000000C01400000311010B592B000240F9422
:102260001C2168461094FDF764FF202107A8FDF7A4
:1022700060FF20481E49C0E900148460C460046106
:1022800044618461FFF7B9FE0F940FA919481094B7
:10229000FFF782FB6020CDE90004029403940494CC
:1022A00005940022694613480694FFF73EFE042277
:1022B00069461048FFF739FE082269460D48FFF7C6
:1022C00034FE0C2269460B48FFF72FFE0794089452
:1022D00009944FF400500A94CDE90B4007A9054832
:1022E0000E94FFF72FFB0348FFF7D4FD12B010BD8B
:1022F000002C0140D000002010B592B000240B94B7
:102300000C940D940E940F941094079408940994CF
:102310001C2168460A94FDF70CFF1D481B4901600B
:1023200040F2AF41C0E90114C46004618461FFF769
:1023300054FB4FF480500B900BA91548FFF7A0FBFE
:102340001348FFF7ACFC1248FFF757FE0F940FA994
:102350000F481094FFF720FB0120CDE907400E2025
:10236000CDE90940002207A90948FFF70BFC6020CE
:10237000CDE9000402940422694605480494FFF75D
:10238000D4FD0348FFF786FD12B010BD00040040E5
:1023900010010020FEE7704770477047FEF72ABF24
:1023A00030B593B028216846FDF7C3FE14210AA872
:1023B000FDF7BFFE002401200F9410941194010436
:1023C00012948DE8130004904FF4E010CDE908104A
:1023D000022507956846FFF70FF90F20CDE90A059A
:1023E0006802CDE90C4002210AA80E94FFF732F8EA
:1023F000A80311900F950FA8FEF7B6FFFFF7C0F8DE
:1024000013B030BD0D48016841F001010160416821
:102410000B4A1140416001680A4A1140016001689D
:1024200021F480210160416821F4FE0141604FF4F4
:102430001F0181600449C00308607047001002401A
:102440000000FFF8FFFFF6FE08ED00E00148FFF78F
:102450006DBC000010010020F0B50268164B174C4F
:10246000174D4FF08047984205D0B84203D0A042A4
:1024700001D0A84203D122F070064A683243984244
:1024800005D0B84203D0A04201D0A84203D122F423
:102490004074CA6822434C6922F0800222430260E1
:1024A0008A68C2620A688262984201D1096901633E
:1024B00001214161F0BD0000002C014000040040FA
:1024C0000008004010B501F01F030121046A994083
:1024D0008C430462016A9A401143016210BD10B539
:1024E000846842EA032224F47F440A432243826040
:1024F00010BD826822F070020A4342F00701816039
:102500007047000030B5026A22F001020262026ADE
:102510004368846924F073050C682C4322F002059B
:102520008A682A430A4DA8420BD122F00805CA68DE
:1025300023F440732A434D6922F004021D438B6942
:102540002B434360846149684163026230BD0000EF
:10255000002C014030B5026A22F010020262026AC9
:10256000436884690D6824F4E64444EA05248D68D0
:1025700022F0200242EA05120B4DA8420ED1CD688E
:1025800022F0800242EA05124D6923F4406343EAD7
:1025900085038D6922F0400243EA8503436084612C
:1025A00049688163026230BD002C014030B5026A87
:1025B00022F480720262036A4268C46923F40073E1
:1025C00024F073050C682C438D6843EA05230C4DF9
:1025D000A8420ED1CD6823F4006343EA05234D6978
:1025E00022F4405242EA05128D6923F4806342EAE4
:1025F00005124260C4614968C163036230BD0000D6
:10260000002C014030B5026A22F480520262046A52
:102610004268C3690D6823F4E64343EA05238D68E5
:1026200024F4005444EA0534064DA84204D14D690F
:1026300022F4804242EA85124260C3614968016423
:10264000046230BD002C014010B5036A046A24F016
:1026500001040462846924F0F00444EA021423F0C3
:102660000A020A438461026210BD000070B5046A68
:1026700024F0010404628469056A0F4EB04208D058
:10268000B0F1804F05D00D4EB04202D00C4EB0429A
:1026900003D124F00304144301E044F001041A07B9
:1026A00024F0F00444EA126225F00A0301F00A0162
:1026B00019438261016270BD002C0140000400409A
:1026C0000008004010B5036A23F010030362836919
:1026D000046A23F4704343EA023224F0A00343EA7D
:1026E00001118261016210BD30B5046A24F010044A
:1026F00004628469056A24F4407444EA022222F4E4
:1027000070444FF6FF7202EA03322243A02425F000
:10271000A00304EA011119438261016230BDFEE7A2
:1027200070B5114C0546A1691048FDF70DFDFDF788
:1027300062FDC4E90E012868FDF744FDA060FDF7C5
:1027400046FD0B49E0600A6850630A6890630A68B6
:10275000D063096808640020C4E90C00C4E90A00D9
:102760000120206270BD00000000002000606A4768
:10277000D00000200907090E002804DB00F1E0204A
:1027800080F80014704700F00F0000F1E02080F89E
:10279000141D704702E008C8121F08C1002AFAD1B0
:1027A00070477047002001E001C1121F002AFBD1D1
:1027B0007047000008B5FEF725FDFFF7F1FDFFF7B4
:1027C000CDFC4B48416941F001014161406900F095
:1027D00001000090FFF78CFCFFF73EFDFFF78CFD3A
:1027E000002201210B20FEF78DFD0B20FEF77CFD62
:1027F000002201212820FEF785FD2820FEF774FD28
:10280000002211460A20FEF77DFD0A20FEF76CFD2E
:10281000002201211220FEF775FD1220FEF764FD53
:10282000002201211D20FEF76DFD1D20FEF75CFD3D
:1028300000213048FFF72EFC04212E48FFF72AFC28
:1028400008212C48FFF726FC0C212A48FFF722FC20
:10285000294C002202212046FEF7C0FC0022042160
:102860002046FEF7BBFC002208212046FEF7B6FCFE
:10287000FDF7DAFD4FF47A70FEF794FB1D4C00254E
:10288000206885632068C56320680564294604F1D3
:102890004000FFF720FA042104F14000FFF7DEFBBF
:1028A00000212046FFF7DAFB04F1400647F6FF70EF
:1028B00031688863206885632068C5632068056483
:1028C0004FF4FA60FEF76EFBA4F13000FDF762FFF3
:1028D00002220A49A4F13000FEF7CEF9216840F641
:1028E000B470C86231684EF65F20C862FEE700002F
:1028F00000100240D00000200008014058000020D5
:10290000000000000000000001020304060708099F
:102910003029000800000020A000000094270008D3
:10292000D0290008A0000020F8040000A427000817
:102930000000000000000000000000000000000097
:102940000000000000000000000000000000000087
:102950000000000000000000000000000000000077
:102960000000000000000000000000000000000067
:102970000000000000000000000000000000000057
:102980000000000000000000000000000000000047
:102990000000000000000000000000000400000033
:1029A000080000000C00000002000000040000000D
:1029B000080000000000000000000000000000000F
:1029C00001000000100000000000000000A24A0406
:04000005080000ED02
:00000001FF
